{
  "contractName": "Result",
  "abi": [
    {
      "anonymous": false,
      "inputs": [
        {
          "indexed": true,
          "internalType": "address",
          "name": "previousOwner",
          "type": "address"
        },
        {
          "indexed": true,
          "internalType": "address",
          "name": "newOwner",
          "type": "address"
        }
      ],
      "name": "OwnershipTransferred",
      "type": "event"
    },
    {
      "inputs": [],
      "name": "owner",
      "outputs": [
        {
          "internalType": "address",
          "name": "",
          "type": "address"
        }
      ],
      "stateMutability": "view",
      "type": "function"
    },
    {
      "inputs": [],
      "name": "renounceOwnership",
      "outputs": [],
      "stateMutability": "nonpayable",
      "type": "function"
    },
    {
      "inputs": [
        {
          "internalType": "address",
          "name": "newOwner",
          "type": "address"
        }
      ],
      "name": "transferOwnership",
      "outputs": [],
      "stateMutability": "nonpayable",
      "type": "function"
    },
    {
      "inputs": [
        {
          "internalType": "address",
          "name": "_doctor",
          "type": "address"
        },
        {
          "internalType": "string",
          "name": "_doctorId",
          "type": "string"
        },
        {
          "internalType": "string",
          "name": "_name",
          "type": "string"
        },
        {
          "internalType": "string",
          "name": "_labId",
          "type": "string"
        }
      ],
      "name": "assignDoctor",
      "outputs": [],
      "stateMutability": "nonpayable",
      "type": "function"
    },
    {
      "inputs": [
        {
          "internalType": "string",
          "name": "_patientId",
          "type": "string"
        },
        {
          "internalType": "string",
          "name": "_name",
          "type": "string"
        },
        {
          "internalType": "string",
          "name": "_idType",
          "type": "string"
        },
        {
          "internalType": "string",
          "name": "_testResult",
          "type": "string"
        },
        {
          "internalType": "uint256",
          "name": "_antibodyCount",
          "type": "uint256"
        }
      ],
      "name": "addResult",
      "outputs": [],
      "stateMutability": "nonpayable",
      "type": "function"
    },
    {
      "inputs": [
        {
          "internalType": "string",
          "name": "_patientId",
          "type": "string"
        },
        {
          "internalType": "string",
          "name": "_testResult",
          "type": "string"
        },
        {
          "internalType": "uint256",
          "name": "_antibodyCount",
          "type": "uint256"
        }
      ],
      "name": "editResult",
      "outputs": [],
      "stateMutability": "nonpayable",
      "type": "function"
    },
    {
      "inputs": [
        {
          "internalType": "string",
          "name": "_patientId",
          "type": "string"
        }
      ],
      "name": "getResult",
      "outputs": [
        {
          "internalType": "string",
          "name": "",
          "type": "string"
        },
        {
          "internalType": "string",
          "name": "",
          "type": "string"
        },
        {
          "internalType": "string",
          "name": "",
          "type": "string"
        },
        {
          "internalType": "string",
          "name": "",
          "type": "string"
        },
        {
          "internalType": "uint256",
          "name": "",
          "type": "uint256"
        }
      ],
      "stateMutability": "view",
      "type": "function"
    },
    {
      "inputs": [
        {
          "internalType": "string",
          "name": "_doctorId",
          "type": "string"
        }
      ],
      "name": "getDoctorInfo",
      "outputs": [
        {
          "internalType": "string",
          "name": "",
          "type": "string"
        },
        {
          "internalType": "string",
          "name": "",
          "type": "string"
        }
      ],
      "stateMutability": "view",
      "type": "function"
    },
    {
      "inputs": [
        {
          "internalType": "string",
          "name": "_doctorId",
          "type": "string"
        }
      ],
      "name": "signInDoctor",
      "outputs": [
        {
          "internalType": "bool",
          "name": "",
          "type": "bool"
        }
      ],
      "stateMutability": "view",
      "type": "function"
    },
    {
      "inputs": [],
      "name": "kill",
      "outputs": [
        {
          "internalType": "bool",
          "name": "",
          "type": "bool"
        }
      ],
      "stateMutability": "nonpayable",
      "type": "function"
    }
  ],
  "bytecode": "0x6080604052600060015560006100196100bc60201b60201c565b9050806000806101000a81548173ffffffffffffffffffffffffffffffffffffffff021916908373ffffffffffffffffffffffffffffffffffffffff1602179055508073ffffffffffffffffffffffffffffffffffffffff16600073ffffffffffffffffffffffffffffffffffffffff167f8be0079c531659141344cd1fd0a4f28419497f9722a3daafe3b4186f6b6457e060405160405180910390a3506100c4565b600033905090565b611b57806100d36000396000f3fe608060405234801561001057600080fd5b506004361061009e5760003560e01c80638d07dcf1116100665780638d07dcf1146105d15780638da5cb5b14610662578063cfe69f6f146106ac578063d0e2fd2014610784578063f2fde38b146108e25761009e565b806318c01490146100a357806341c0e1b514610225578063498cc70d146102475780636a41fcf314610484578063715018a6146105c7575b600080fd5b610223600480360360a08110156100b957600080fd5b81019080803590602001906401000000008111156100d657600080fd5b8201836020820111156100e857600080fd5b8035906020019184600183028401116401000000008311171561010a57600080fd5b90919293919293908035906020019064010000000081111561012b57600080fd5b82018360208201111561013d57600080fd5b8035906020019184600183028401116401000000008311171561015f57600080fd5b90919293919293908035906020019064010000000081111561018057600080fd5b82018360208201111561019257600080fd5b803590602001918460018302840111640100000000831117156101b457600080fd5b9091929391929390803590602001906401000000008111156101d557600080fd5b8201836020820111156101e757600080fd5b8035906020019184600183028401116401000000008311171561020957600080fd5b909192939192939080359060200190929190505050610926565b005b61022d610b8f565b604051808215151515815260200191505060405180910390f35b6102be6004803603602081101561025d57600080fd5b810190808035906020019064010000000081111561027a57600080fd5b82018360208201111561028c57600080fd5b803590602001918460018302840111640100000000831117156102ae57600080fd5b9091929391929390505050610c73565b604051808060200180602001806020018060200186815260200185810385528a818151815260200191508051906020019080838360005b838110156103105780820151818401526020810190506102f5565b50505050905090810190601f16801561033d5780820380516001836020036101000a031916815260200191505b50858103845289818151815260200191508051906020019080838360005b8381101561037657808201518184015260208101905061035b565b50505050905090810190601f1680156103a35780820380516001836020036101000a031916815260200191505b50858103835288818151815260200191508051906020019080838360005b838110156103dc5780820151818401526020810190506103c1565b50505050905090810190601f1680156104095780820380516001836020036101000a031916815260200191505b50858103825287818151815260200191508051906020019080838360005b83811015610442578082015181840152602081019050610427565b50505050905090810190601f16801561046f5780820380516001836020036101000a031916815260200191505b50995050505050505050505060405180910390f35b6105c56004803603608081101561049a57600080fd5b81019080803573ffffffffffffffffffffffffffffffffffffffff169060200190929190803590602001906401000000008111156104d757600080fd5b8201836020820111156104e957600080fd5b8035906020019184600183028401116401000000008311171561050b57600080fd5b90919293919293908035906020019064010000000081111561052c57600080fd5b82018360208201111561053e57600080fd5b8035906020019184600183028401116401000000008311171561056057600080fd5b90919293919293908035906020019064010000000081111561058157600080fd5b82018360208201111561059357600080fd5b803590602001918460018302840111640100000000831117156105b557600080fd5b9091929391929390505050610f9b565b005b6105cf611168565b005b610648600480360360208110156105e757600080fd5b810190808035906020019064010000000081111561060457600080fd5b82018360208201111561061657600080fd5b8035906020019184600183028401116401000000008311171561063857600080fd5b90919293919293905050506112f0565b604051808215151515815260200191505060405180910390f35b61066a6113e3565b604051808273ffffffffffffffffffffffffffffffffffffffff1673ffffffffffffffffffffffffffffffffffffffff16815260200191505060405180910390f35b610782600480360360608110156106c257600080fd5b81019080803590602001906401000000008111156106df57600080fd5b8201836020820111156106f157600080fd5b8035906020019184600183028401116401000000008311171561071357600080fd5b90919293919293908035906020019064010000000081111561073457600080fd5b82018360208201111561074657600080fd5b8035906020019184600183028401116401000000008311171561076857600080fd5b90919293919293908035906020019092919050505061140c565b005b6107fb6004803603602081101561079a57600080fd5b81019080803590602001906401000000008111156107b757600080fd5b8201836020820111156107c957600080fd5b803590602001918460018302840111640100000000831117156107eb57600080fd5b90919293919293905050506115d2565b604051808060200180602001838103835285818151815260200191508051906020019080838360005b8381101561083f578082015181840152602081019050610824565b50505050905090810190601f16801561086c5780820380516001836020036101000a031916815260200191505b50838103825284818151815260200191508051906020019080838360005b838110156108a557808201518184015260208101905061088a565b50505050905090810190601f1680156108d25780820380516001836020036101000a031916815260200191505b5094505050505060405180910390f35b610924600480360360208110156108f857600080fd5b81019080803573ffffffffffffffffffffffffffffffffffffffff169060200190929190505050611771565b005b600260003373ffffffffffffffffffffffffffffffffffffffff1673ffffffffffffffffffffffffffffffffffffffff16815260200190815260200160002060009054906101000a900460ff166109e5576040517f08c379a00000000000000000000000000000000000000000000000000000000081526004018080602001828103825260148152602001807f596f75206d757374206265206120646f63746f7200000000000000000000000081525060200191505060405180910390fd5b600060058a8a60405180838380828437808301925050509250505090815260200160405180910390205414610a82576040517f08c379a00000000000000000000000000000000000000000000000000000000081526004018080602001828103825260188152602001807f70617469656e7420697320616c7265616479206578697374000000000000000081525060200191505060405180910390fd5b60016000815480929190600101919050555060015460058a8a604051808383808284378083019250505092505050908152602001604051809103902081905550600060066000600154815260200190815260200160002090508787826000019190610aee929190611986565b508585826001019190610b02929190611986565b50600360003373ffffffffffffffffffffffffffffffffffffffff1673ffffffffffffffffffffffffffffffffffffffff168152602001908152602001600020816002019080546001816001161561010002031660029004610b65929190611a06565b508383826003019190610b79929190611986565b5081816004018190555050505050505050505050565b6000610b9961197e565b73ffffffffffffffffffffffffffffffffffffffff166000809054906101000a900473ffffffffffffffffffffffffffffffffffffffff1673ffffffffffffffffffffffffffffffffffffffff1614610c5a576040517f08c379a00000000000000000000000000000000000000000000000000000000081526004018080602001828103825260208152602001807f4f776e61626c653a2063616c6c6572206973206e6f7420746865206f776e657281525060200191505060405180910390fd5b3373ffffffffffffffffffffffffffffffffffffffff16ff5b606080606080600080600588886040518083838082843780830192505050925050509081526020016040518091039020549050610cae611a8d565b600660008381526020019081526020016000206040518060a0016040529081600082018054600181600116156101000203166002900480601f016020809104026020016040519081016040528092919081815260200182805460018160011615610100020316600290048015610d655780601f10610d3a57610100808354040283529160200191610d65565b820191906000526020600020905b815481529060010190602001808311610d4857829003601f168201915b50505050508152602001600182018054600181600116156101000203166002900480601f016020809104026020016040519081016040528092919081815260200182805460018160011615610100020316600290048015610e075780601f10610ddc57610100808354040283529160200191610e07565b820191906000526020600020905b815481529060010190602001808311610dea57829003601f168201915b50505050508152602001600282018054600181600116156101000203166002900480601f016020809104026020016040519081016040528092919081815260200182805460018160011615610100020316600290048015610ea95780601f10610e7e57610100808354040283529160200191610ea9565b820191906000526020600020905b815481529060010190602001808311610e8c57829003601f168201915b50505050508152602001600382018054600181600116156101000203166002900480601f016020809104026020016040519081016040528092919081815260200182805460018160011615610100020316600290048015610f4b5780601f10610f2057610100808354040283529160200191610f4b565b820191906000526020600020905b815481529060010190602001808311610f2e57829003601f168201915b505050505081526020016004820154815250509050806000015181602001518260400151836060015184608001518494508393508292508191509650965096509650965050509295509295909350565b610fa361197e565b73ffffffffffffffffffffffffffffffffffffffff166000809054906101000a900473ffffffffffffffffffffffffffffffffffffffff1673ffffffffffffffffffffffffffffffffffffffff1614611064576040517f08c379a00000000000000000000000000000000000000000000000000000000081526004018080602001828103825260208152602001807f4f776e61626c653a2063616c6c6572206973206e6f7420746865206f776e657281525060200191505060405180910390fd5b6001600260008973ffffffffffffffffffffffffffffffffffffffff1673ffffffffffffffffffffffffffffffffffffffff16815260200190815260200160002060006101000a81548160ff0219169083151502179055508585600360008a73ffffffffffffffffffffffffffffffffffffffff1673ffffffffffffffffffffffffffffffffffffffff168152602001908152602001600020919061110a929190611986565b50600060048787604051808383808284378083019250505092505050908152602001604051809103902090508484826000019190611149929190611986565b50828282600101919061115d929190611986565b505050505050505050565b61117061197e565b73ffffffffffffffffffffffffffffffffffffffff166000809054906101000a900473ffffffffffffffffffffffffffffffffffffffff1673ffffffffffffffffffffffffffffffffffffffff1614611231576040517f08c379a00000000000000000000000000000000000000000000000000000000081526004018080602001828103825260208152602001807f4f776e61626c653a2063616c6c6572206973206e6f7420746865206f776e657281525060200191505060405180910390fd5b600073ffffffffffffffffffffffffffffffffffffffff166000809054906101000a900473ffffffffffffffffffffffffffffffffffffffff1673ffffffffffffffffffffffffffffffffffffffff167f8be0079c531659141344cd1fd0a4f28419497f9722a3daafe3b4186f6b6457e060405160405180910390a360008060006101000a81548173ffffffffffffffffffffffffffffffffffffffff021916908373ffffffffffffffffffffffffffffffffffffffff160217905550565b6000600360003373ffffffffffffffffffffffffffffffffffffffff1673ffffffffffffffffffffffffffffffffffffffff168152602001908152602001600020604051602001808280546001816001161561010002031660029004801561138f5780601f1061136d57610100808354040283529182019161138f565b820191906000526020600020905b81548152906001019060200180831161137b575b50509150506040516020818303038152906040528051906020012083836040516020018083838082843780830192505050925050506040516020818303038152906040528051906020012014905092915050565b60008060009054906101000a900473ffffffffffffffffffffffffffffffffffffffff16905090565b600260003373ffffffffffffffffffffffffffffffffffffffff1673ffffffffffffffffffffffffffffffffffffffff16815260200190815260200160002060009054906101000a900460ff166114cb576040517f08c379a00000000000000000000000000000000000000000000000000000000081526004018080602001828103825260148152602001807f596f75206d757374206265206120646f63746f7200000000000000000000000081525060200191505060405180910390fd5b6000600586866040518083838082843780830192505050925050509081526020016040518091039020541415611569576040517f08c379a00000000000000000000000000000000000000000000000000000000081526004018080602001828103825260168152602001807f70617469656e7420646f6573206e6f742065786973740000000000000000000081525060200191505060405180910390fd5b6000600586866040518083838082843780830192505050925050509081526020016040518091039020549050600060066000838152602001908152602001600020905084848260030191906115bf929190611986565b5082816004018190555050505050505050565b6060806115dd611abc565b600485856040518083838082843780830192505050925050509081526020016040518091039020604051806040016040529081600082018054600181600116156101000203166002900480601f0160208091040260200160405190810160405280929190818152602001828054600181600116156101000203166002900480156116a85780601f1061167d576101008083540402835291602001916116a8565b820191906000526020600020905b81548152906001019060200180831161168b57829003601f168201915b50505050508152602001600182018054600181600116156101000203166002900480601f01602080910402602001604051908101604052809291908181526020018280546001816001161561010002031660029004801561174a5780601f1061171f5761010080835404028352916020019161174a565b820191906000526020600020905b81548152906001019060200180831161172d57829003601f168201915b50505050508152505090508060000151816020015181915080905092509250509250929050565b61177961197e565b73ffffffffffffffffffffffffffffffffffffffff166000809054906101000a900473ffffffffffffffffffffffffffffffffffffffff1673ffffffffffffffffffffffffffffffffffffffff161461183a576040517f08c379a00000000000000000000000000000000000000000000000000000000081526004018080602001828103825260208152602001807f4f776e61626c653a2063616c6c6572206973206e6f7420746865206f776e657281525060200191505060405180910390fd5b600073ffffffffffffffffffffffffffffffffffffffff168173ffffffffffffffffffffffffffffffffffffffff1614156118c0576040517f08c379a0000000000000000000000000000000000000000000000000000000008152600401808060200182810382526026815260200180611afc6026913960400191505060405180910390fd5b8073ffffffffffffffffffffffffffffffffffffffff166000809054906101000a900473ffffffffffffffffffffffffffffffffffffffff1673ffffffffffffffffffffffffffffffffffffffff167f8be0079c531659141344cd1fd0a4f28419497f9722a3daafe3b4186f6b6457e060405160405180910390a3806000806101000a81548173ffffffffffffffffffffffffffffffffffffffff021916908373ffffffffffffffffffffffffffffffffffffffff16021790555050565b600033905090565b828054600181600116156101000203166002900490600052602060002090601f016020900481019282601f106119c757803560ff19168380011785556119f5565b828001600101855582156119f5579182015b828111156119f45782358255916020019190600101906119d9565b5b509050611a029190611ad6565b5090565b828054600181600116156101000203166002900490600052602060002090601f016020900481019282601f10611a3f5780548555611a7c565b82800160010185558215611a7c57600052602060002091601f016020900482015b82811115611a7b578254825591600101919060010190611a60565b5b509050611a899190611ad6565b5090565b6040518060a0016040528060608152602001606081526020016060815260200160608152602001600081525090565b604051806040016040528060608152602001606081525090565b611af891905b80821115611af4576000816000905550600101611adc565b5090565b9056fe4f776e61626c653a206e6577206f776e657220697320746865207a65726f2061646472657373a26469706673582212207032a8e1627852a485c7458a4ded168acfdd95482b20b4b448750db0eb7a3b6564736f6c63430006000033",
  "source": "pragma solidity >=0.5.0 <=0.7.0;\r\n\r\nimport \"@openzeppelin/contracts/access/Ownable.sol\";\r\n\r\n\r\ncontract Result is Ownable {\r\n    uint256 id = 0;\r\n    mapping(address => bool) doctors;\r\n    mapping(address => string) addressToDoctorId;\r\n    mapping(string => DoctorInfo) idToDoctorInfo;\r\n    mapping(string => uint256) patientToId;\r\n    mapping(uint256 => Info) patientResult;\r\n    struct Info {\r\n        string name;\r\n        string idType;\r\n        string doctorId;\r\n        string testResult;\r\n        uint256 antibodyCount;\r\n    }\r\n    struct DoctorInfo {\r\n        string name;\r\n        string labId;\r\n    }\r\n    modifier onlyDoctor() {\r\n        require(doctors[msg.sender], \"You must be a doctor\");\r\n        _;\r\n    }\r\n\r\n    function assignDoctor(\r\n        address _doctor,\r\n        string calldata _doctorId,\r\n        string calldata _name,\r\n        string calldata _labId\r\n    ) external onlyOwner {\r\n        doctors[_doctor] = true;\r\n        addressToDoctorId[_doctor] = _doctorId;\r\n        DoctorInfo storage doctor = idToDoctorInfo[_doctorId];\r\n        doctor.name = _name;\r\n        doctor.labId = _labId;\r\n    }\r\n\r\n    function addResult(\r\n        string calldata _patientId,\r\n        string calldata _name,\r\n        string calldata _idType,\r\n        string calldata _testResult,\r\n        uint256 _antibodyCount\r\n    ) external onlyDoctor {\r\n        require(patientToId[_patientId] == 0, \"patient is already exist\");\r\n        id++;\r\n        patientToId[_patientId] = id;\r\n        Info storage patient = patientResult[id];\r\n        patient.name = _name;\r\n        patient.idType = _idType;\r\n        patient.doctorId = addressToDoctorId[msg.sender];\r\n        patient.testResult = _testResult;\r\n        patient.antibodyCount = _antibodyCount;\r\n    }\r\n\r\n    function editResult(string calldata _patientId, string calldata _testResult, uint256 _antibodyCount)\r\n        external\r\n        onlyDoctor\r\n    {\r\n        require(patientToId[_patientId] != 0, \"patient does not exist\");\r\n        uint256 patientId = patientToId[_patientId];\r\n        Info storage patient = patientResult[patientId];\r\n        patient.testResult = _testResult;\r\n        patient.antibodyCount = _antibodyCount;\r\n    }\r\n\r\n    function getResult(string calldata _patientId)\r\n        external\r\n        view\r\n        returns (string memory, string memory, string memory, string memory, uint256)\r\n    {\r\n        uint256 patientId = patientToId[_patientId];\r\n        Info memory patient = patientResult[patientId];\r\n        return (\r\n            patient.name,\r\n            patient.idType,\r\n            patient.doctorId,\r\n            patient.testResult,\r\n            patient.antibodyCount\r\n        );\r\n    }\r\n\r\n    function getDoctorInfo(string calldata _doctorId)\r\n        external\r\n        view\r\n        returns (string memory, string memory)\r\n    {\r\n        DoctorInfo memory doctor = idToDoctorInfo[_doctorId];\r\n        return (doctor.name, doctor.labId);\r\n    }\r\n\r\n    function signInDoctor(string calldata _doctorId)\r\n        external\r\n        view\r\n        returns (bool)\r\n    {\r\n        return\r\n            keccak256(abi.encodePacked(_doctorId)) ==\r\n            keccak256(abi.encodePacked(addressToDoctorId[msg.sender]));\r\n    }\r\n\r\n    function kill() public onlyOwner returns (bool) {\r\n        selfdestruct(msg.sender);\r\n        return true;\r\n    }\r\n}\r\n",
  "sourcePath": "D:\\hackathon\\block-app\\ResultSmartContract\\contracts\\Result.sol",
  "compiler": {
    "name": "solc",
    "version": "0.6.0+commit.26b70077.Emscripten.clang"
  },
  "schemaVersion": "3.1.0",
  "updatedAt": "2020-04-26T13:18:40.245Z",
  "devdoc": {
    "methods": {
      "owner()": {
        "details": "Returns the address of the current owner."
      },
      "renounceOwnership()": {
        "details": "Leaves the contract without owner. It will not be possible to call `onlyOwner` functions anymore. Can only be called by the current owner.     * NOTE: Renouncing ownership will leave the contract without an owner, thereby removing any functionality that is only available to the owner."
      },
      "transferOwnership(address)": {
        "details": "Transfers ownership of the contract to a new account (`newOwner`). Can only be called by the current owner."
      }
    }
  },
  "userdoc": {
    "methods": {}
  }
}