{
  "contractName": "Result",
  "abi": [
    {
      "anonymous": false,
      "inputs": [
        {
          "indexed": true,
          "internalType": "address",
          "name": "previousOwner",
          "type": "address"
        },
        {
          "indexed": true,
          "internalType": "address",
          "name": "newOwner",
          "type": "address"
        }
      ],
      "name": "OwnershipTransferred",
      "type": "event"
    },
    {
      "inputs": [],
      "name": "owner",
      "outputs": [
        {
          "internalType": "address",
          "name": "",
          "type": "address"
        }
      ],
      "stateMutability": "view",
      "type": "function",
      "constant": true
    },
    {
      "inputs": [],
      "name": "renounceOwnership",
      "outputs": [],
      "stateMutability": "nonpayable",
      "type": "function"
    },
    {
      "inputs": [
        {
          "internalType": "address",
          "name": "newOwner",
          "type": "address"
        }
      ],
      "name": "transferOwnership",
      "outputs": [],
      "stateMutability": "nonpayable",
      "type": "function"
    },
    {
      "inputs": [
        {
          "internalType": "address",
          "name": "_doctor",
          "type": "address"
        },
        {
          "internalType": "string",
          "name": "_doctorId",
          "type": "string"
        },
        {
          "internalType": "string",
          "name": "_name",
          "type": "string"
        },
        {
          "internalType": "string",
          "name": "_labId",
          "type": "string"
        }
      ],
      "name": "assignDoctor",
      "outputs": [],
      "stateMutability": "nonpayable",
      "type": "function"
    },
    {
      "inputs": [
        {
          "internalType": "string",
          "name": "_patientId",
          "type": "string"
        },
        {
          "internalType": "string",
          "name": "_name",
          "type": "string"
        },
        {
          "internalType": "string",
          "name": "_idType",
          "type": "string"
        },
        {
          "internalType": "string",
          "name": "_testResult",
          "type": "string"
        }
      ],
      "name": "addResult",
      "outputs": [],
      "stateMutability": "nonpayable",
      "type": "function"
    },
    {
      "inputs": [
        {
          "internalType": "string",
          "name": "_patientId",
          "type": "string"
        },
        {
          "internalType": "string",
          "name": "_testResult",
          "type": "string"
        }
      ],
      "name": "editResult",
      "outputs": [],
      "stateMutability": "nonpayable",
      "type": "function"
    },
    {
      "inputs": [
        {
          "internalType": "string",
          "name": "_patientId",
          "type": "string"
        }
      ],
      "name": "getResult",
      "outputs": [
        {
          "internalType": "string",
          "name": "",
          "type": "string"
        },
        {
          "internalType": "string",
          "name": "",
          "type": "string"
        },
        {
          "internalType": "string",
          "name": "",
          "type": "string"
        },
        {
          "internalType": "string",
          "name": "",
          "type": "string"
        }
      ],
      "stateMutability": "view",
      "type": "function",
      "constant": true
    },
    {
      "inputs": [
        {
          "internalType": "string",
          "name": "_doctorId",
          "type": "string"
        }
      ],
      "name": "getDoctorInfo",
      "outputs": [
        {
          "internalType": "string",
          "name": "",
          "type": "string"
        },
        {
          "internalType": "string",
          "name": "",
          "type": "string"
        }
      ],
      "stateMutability": "view",
      "type": "function",
      "constant": true
    },
    {
      "inputs": [
        {
          "internalType": "string",
          "name": "_doctorId",
          "type": "string"
        }
      ],
      "name": "signInDoctor",
      "outputs": [
        {
          "internalType": "bool",
          "name": "",
          "type": "bool"
        }
      ],
      "stateMutability": "view",
      "type": "function",
      "constant": true
    },
    {
      "inputs": [],
      "name": "kill",
      "outputs": [
        {
          "internalType": "bool",
          "name": "",
          "type": "bool"
        }
      ],
      "stateMutability": "nonpayable",
      "type": "function"
    }
  ],
  "bytecode": "0x6080604052600060015560006100196100bc60201b60201c565b9050806000806101000a81548173ffffffffffffffffffffffffffffffffffffffff021916908373ffffffffffffffffffffffffffffffffffffffff1602179055508073ffffffffffffffffffffffffffffffffffffffff16600073ffffffffffffffffffffffffffffffffffffffff167f8be0079c531659141344cd1fd0a4f28419497f9722a3daafe3b4186f6b6457e060405160405180910390a3506100c4565b600033905090565b611b0e806100d36000396000f3fe608060405234801561001057600080fd5b506004361061009e5760003560e01c80638da5cb5b116100665780638da5cb5b146104d9578063d0e2fd2014610523578063d3950b1e14610681578063ea627e651461074f578063f2fde38b146108c75761009e565b806341c0e1b5146100a3578063498cc70d146100c55780636a41fcf3146102fb578063715018a61461043e5780638d07dcf114610448575b600080fd5b6100ab61090b565b604051808215151515815260200191505060405180910390f35b61013c600480360360208110156100db57600080fd5b81019080803590602001906401000000008111156100f857600080fd5b82018360208201111561010a57600080fd5b8035906020019184600183028401116401000000008311171561012c57600080fd5b90919293919293905050506109ef565b6040518080602001806020018060200180602001858103855289818151815260200191508051906020019080838360005b8381101561018857808201518184015260208101905061016d565b50505050905090810190601f1680156101b55780820380516001836020036101000a031916815260200191505b50858103845288818151815260200191508051906020019080838360005b838110156101ee5780820151818401526020810190506101d3565b50505050905090810190601f16801561021b5780820380516001836020036101000a031916815260200191505b50858103835287818151815260200191508051906020019080838360005b83811015610254578082015181840152602081019050610239565b50505050905090810190601f1680156102815780820380516001836020036101000a031916815260200191505b50858103825286818151815260200191508051906020019080838360005b838110156102ba57808201518184015260208101905061029f565b50505050905090810190601f1680156102e75780820380516001836020036101000a031916815260200191505b509850505050505050505060405180910390f35b61043c6004803603608081101561031157600080fd5b81019080803573ffffffffffffffffffffffffffffffffffffffff1690602001909291908035906020019064010000000081111561034e57600080fd5b82018360208201111561036057600080fd5b8035906020019184600183028401116401000000008311171561038257600080fd5b9091929391929390803590602001906401000000008111156103a357600080fd5b8201836020820111156103b557600080fd5b803590602001918460018302840111640100000000831117156103d757600080fd5b9091929391929390803590602001906401000000008111156103f857600080fd5b82018360208201111561040a57600080fd5b8035906020019184600183028401116401000000008311171561042c57600080fd5b9091929391929390505050610d04565b005b610446610ed1565b005b6104bf6004803603602081101561045e57600080fd5b810190808035906020019064010000000081111561047b57600080fd5b82018360208201111561048d57600080fd5b803590602001918460018302840111640100000000831117156104af57600080fd5b9091929391929390505050611059565b604051808215151515815260200191505060405180910390f35b6104e161114c565b604051808273ffffffffffffffffffffffffffffffffffffffff1673ffffffffffffffffffffffffffffffffffffffff16815260200191505060405180910390f35b61059a6004803603602081101561053957600080fd5b810190808035906020019064010000000081111561055657600080fd5b82018360208201111561056857600080fd5b8035906020019184600183028401116401000000008311171561058a57600080fd5b9091929391929390505050611175565b604051808060200180602001838103835285818151815260200191508051906020019080838360005b838110156105de5780820151818401526020810190506105c3565b50505050905090810190601f16801561060b5780820380516001836020036101000a031916815260200191505b50838103825284818151815260200191508051906020019080838360005b83811015610644578082015181840152602081019050610629565b50505050905090810190601f1680156106715780820380516001836020036101000a031916815260200191505b5094505050505060405180910390f35b61074d6004803603604081101561069757600080fd5b81019080803590602001906401000000008111156106b457600080fd5b8201836020820111156106c657600080fd5b803590602001918460018302840111640100000000831117156106e857600080fd5b90919293919293908035906020019064010000000081111561070957600080fd5b82018360208201111561071b57600080fd5b8035906020019184600183028401116401000000008311171561073d57600080fd5b9091929391929390505050611314565b005b6108c56004803603608081101561076557600080fd5b810190808035906020019064010000000081111561078257600080fd5b82018360208201111561079457600080fd5b803590602001918460018302840111640100000000831117156107b657600080fd5b9091929391929390803590602001906401000000008111156107d757600080fd5b8201836020820111156107e957600080fd5b8035906020019184600183028401116401000000008311171561080b57600080fd5b90919293919293908035906020019064010000000081111561082c57600080fd5b82018360208201111561083e57600080fd5b8035906020019184600183028401116401000000008311171561086057600080fd5b90919293919293908035906020019064010000000081111561088157600080fd5b82018360208201111561089357600080fd5b803590602001918460018302840111640100000000831117156108b557600080fd5b90919293919293905050506114d0565b005b610909600480360360208110156108dd57600080fd5b81019080803573ffffffffffffffffffffffffffffffffffffffff16906020019092919050505061172f565b005b600061091561193c565b73ffffffffffffffffffffffffffffffffffffffff166000809054906101000a900473ffffffffffffffffffffffffffffffffffffffff1673ffffffffffffffffffffffffffffffffffffffff16146109d6576040517f08c379a00000000000000000000000000000000000000000000000000000000081526004018080602001828103825260208152602001807f4f776e61626c653a2063616c6c6572206973206e6f7420746865206f776e657281525060200191505060405180910390fd5b3373ffffffffffffffffffffffffffffffffffffffff16ff5b6060806060806000600587876040518083838082843780830192505050925050509081526020016040518091039020549050610a29611944565b60066000838152602001908152602001600020604051806080016040529081600082018054600181600116156101000203166002900480601f016020809104026020016040519081016040528092919081815260200182805460018160011615610100020316600290048015610ae05780601f10610ab557610100808354040283529160200191610ae0565b820191906000526020600020905b815481529060010190602001808311610ac357829003601f168201915b50505050508152602001600182018054600181600116156101000203166002900480601f016020809104026020016040519081016040528092919081815260200182805460018160011615610100020316600290048015610b825780601f10610b5757610100808354040283529160200191610b82565b820191906000526020600020905b815481529060010190602001808311610b6557829003601f168201915b50505050508152602001600282018054600181600116156101000203166002900480601f016020809104026020016040519081016040528092919081815260200182805460018160011615610100020316600290048015610c245780601f10610bf957610100808354040283529160200191610c24565b820191906000526020600020905b815481529060010190602001808311610c0757829003601f168201915b50505050508152602001600382018054600181600116156101000203166002900480601f016020809104026020016040519081016040528092919081815260200182805460018160011615610100020316600290048015610cc65780601f10610c9b57610100808354040283529160200191610cc6565b820191906000526020600020905b815481529060010190602001808311610ca957829003601f168201915b505050505081525050905080600001518160200151826040015183606001518393508292508191508090509550955095509550505092959194509250565b610d0c61193c565b73ffffffffffffffffffffffffffffffffffffffff166000809054906101000a900473ffffffffffffffffffffffffffffffffffffffff1673ffffffffffffffffffffffffffffffffffffffff1614610dcd576040517f08c379a00000000000000000000000000000000000000000000000000000000081526004018080602001828103825260208152602001807f4f776e61626c653a2063616c6c6572206973206e6f7420746865206f776e657281525060200191505060405180910390fd5b6001600260008973ffffffffffffffffffffffffffffffffffffffff1673ffffffffffffffffffffffffffffffffffffffff16815260200190815260200160002060006101000a81548160ff0219169083151502179055508585600360008a73ffffffffffffffffffffffffffffffffffffffff1673ffffffffffffffffffffffffffffffffffffffff1681526020019081526020016000209190610e7392919061196c565b50600060048787604051808383808284378083019250505092505050908152602001604051809103902090508484826000019190610eb292919061196c565b508282826001019190610ec692919061196c565b505050505050505050565b610ed961193c565b73ffffffffffffffffffffffffffffffffffffffff166000809054906101000a900473ffffffffffffffffffffffffffffffffffffffff1673ffffffffffffffffffffffffffffffffffffffff1614610f9a576040517f08c379a00000000000000000000000000000000000000000000000000000000081526004018080602001828103825260208152602001807f4f776e61626c653a2063616c6c6572206973206e6f7420746865206f776e657281525060200191505060405180910390fd5b600073ffffffffffffffffffffffffffffffffffffffff166000809054906101000a900473ffffffffffffffffffffffffffffffffffffffff1673ffffffffffffffffffffffffffffffffffffffff167f8be0079c531659141344cd1fd0a4f28419497f9722a3daafe3b4186f6b6457e060405160405180910390a360008060006101000a81548173ffffffffffffffffffffffffffffffffffffffff021916908373ffffffffffffffffffffffffffffffffffffffff160217905550565b6000600360003373ffffffffffffffffffffffffffffffffffffffff1673ffffffffffffffffffffffffffffffffffffffff16815260200190815260200160002060405160200180828054600181600116156101000203166002900480156110f85780601f106110d65761010080835404028352918201916110f8565b820191906000526020600020905b8154815290600101906020018083116110e4575b50509150506040516020818303038152906040528051906020012083836040516020018083838082843780830192505050925050506040516020818303038152906040528051906020012014905092915050565b60008060009054906101000a900473ffffffffffffffffffffffffffffffffffffffff16905090565b6060806111806119ec565b600485856040518083838082843780830192505050925050509081526020016040518091039020604051806040016040529081600082018054600181600116156101000203166002900480601f01602080910402602001604051908101604052809291908181526020018280546001816001161561010002031660029004801561124b5780601f106112205761010080835404028352916020019161124b565b820191906000526020600020905b81548152906001019060200180831161122e57829003601f168201915b50505050508152602001600182018054600181600116156101000203166002900480601f0160208091040260200160405190810160405280929190818152602001828054600181600116156101000203166002900480156112ed5780601f106112c2576101008083540402835291602001916112ed565b820191906000526020600020905b8154815290600101906020018083116112d057829003601f168201915b50505050508152505090508060000151816020015181915080905092509250509250929050565b600260003373ffffffffffffffffffffffffffffffffffffffff1673ffffffffffffffffffffffffffffffffffffffff16815260200190815260200160002060009054906101000a900460ff166113d3576040517f08c379a00000000000000000000000000000000000000000000000000000000081526004018080602001828103825260148152602001807f596f75206d757374206265206120646f63746f7200000000000000000000000081525060200191505060405180910390fd5b6000600585856040518083838082843780830192505050925050509081526020016040518091039020541415611471576040517f08c379a00000000000000000000000000000000000000000000000000000000081526004018080602001828103825260168152602001807f70617469656e7420646f6573206e6f742065786973740000000000000000000081525060200191505060405180910390fd5b6000600585856040518083838082843780830192505050925050509081526020016040518091039020549050600060066000838152602001908152602001600020905083838260030191906114c792919061196c565b50505050505050565b600260003373ffffffffffffffffffffffffffffffffffffffff1673ffffffffffffffffffffffffffffffffffffffff16815260200190815260200160002060009054906101000a900460ff1661158f576040517f08c379a00000000000000000000000000000000000000000000000000000000081526004018080602001828103825260148152602001807f596f75206d757374206265206120646f63746f7200000000000000000000000081525060200191505060405180910390fd5b6000600589896040518083838082843780830192505050925050509081526020016040518091039020541461162c576040517f08c379a00000000000000000000000000000000000000000000000000000000081526004018080602001828103825260188152602001807f70617469656e7420697320616c7265616479206578697374000000000000000081525060200191505060405180910390fd5b6001600081548092919060010191905055506001546005898960405180838380828437808301925050509250505090815260200160405180910390208190555060006006600060015481526020019081526020016000209050868682600001919061169892919061196c565b5084848260010191906116ac92919061196c565b50600360003373ffffffffffffffffffffffffffffffffffffffff1673ffffffffffffffffffffffffffffffffffffffff16815260200190815260200160002081600201908054600181600116156101000203166002900461170f929190611a06565b50828282600301919061172392919061196c565b50505050505050505050565b61173761193c565b73ffffffffffffffffffffffffffffffffffffffff166000809054906101000a900473ffffffffffffffffffffffffffffffffffffffff1673ffffffffffffffffffffffffffffffffffffffff16146117f8576040517f08c379a00000000000000000000000000000000000000000000000000000000081526004018080602001828103825260208152602001807f4f776e61626c653a2063616c6c6572206973206e6f7420746865206f776e657281525060200191505060405180910390fd5b600073ffffffffffffffffffffffffffffffffffffffff168173ffffffffffffffffffffffffffffffffffffffff16141561187e576040517f08c379a0000000000000000000000000000000000000000000000000000000008152600401808060200182810382526026815260200180611ab36026913960400191505060405180910390fd5b8073ffffffffffffffffffffffffffffffffffffffff166000809054906101000a900473ffffffffffffffffffffffffffffffffffffffff1673ffffffffffffffffffffffffffffffffffffffff167f8be0079c531659141344cd1fd0a4f28419497f9722a3daafe3b4186f6b6457e060405160405180910390a3806000806101000a81548173ffffffffffffffffffffffffffffffffffffffff021916908373ffffffffffffffffffffffffffffffffffffffff16021790555050565b600033905090565b6040518060800160405280606081526020016060815260200160608152602001606081525090565b828054600181600116156101000203166002900490600052602060002090601f016020900481019282601f106119ad57803560ff19168380011785556119db565b828001600101855582156119db579182015b828111156119da5782358255916020019190600101906119bf565b5b5090506119e89190611a8d565b5090565b604051806040016040528060608152602001606081525090565b828054600181600116156101000203166002900490600052602060002090601f016020900481019282601f10611a3f5780548555611a7c565b82800160010185558215611a7c57600052602060002091601f016020900482015b82811115611a7b578254825591600101919060010190611a60565b5b509050611a899190611a8d565b5090565b611aaf91905b80821115611aab576000816000905550600101611a93565b5090565b9056fe4f776e61626c653a206e6577206f776e657220697320746865207a65726f2061646472657373a2646970667358221220dce3c2f2493c1fe36fb0cbf09479e381500e44c74470b82fa086977d621430a864736f6c63430006000033",
  "source": "pragma solidity >=0.5.0 <=0.7.0;\r\n\r\nimport \"@openzeppelin/contracts/access/Ownable.sol\";\r\n\r\n\r\ncontract Result is Ownable {\r\n    uint256 id = 0;\r\n    mapping(address => bool) doctors;\r\n    mapping(address => string) addressToDoctorId;\r\n    mapping(string => DoctorInfo) idToDoctorInfo;\r\n    mapping(string => uint256) patientToId;\r\n    mapping(uint256 => Info) patientResult;\r\n    struct Info {\r\n        string name;\r\n        string idType;\r\n        string doctorId;\r\n        string testResult;\r\n    }\r\n    struct DoctorInfo {\r\n        string name;\r\n        string labId;\r\n    }\r\n    modifier onlyDoctor() {\r\n        require(doctors[msg.sender], \"You must be a doctor\");\r\n        _;\r\n    }\r\n\r\n    function assignDoctor(\r\n        address _doctor,\r\n        string calldata _doctorId,\r\n        string calldata _name,\r\n        string calldata _labId\r\n    ) external onlyOwner {\r\n        doctors[_doctor] = true;\r\n        addressToDoctorId[_doctor] = _doctorId;\r\n        DoctorInfo storage doctor = idToDoctorInfo[_doctorId];\r\n        doctor.name = _name;\r\n        doctor.labId = _labId;\r\n    }\r\n\r\n    function addResult(\r\n        string calldata _patientId,\r\n        string calldata _name,\r\n        string calldata _idType,\r\n        string calldata _testResult\r\n    ) external onlyDoctor {\r\n        require(patientToId[_patientId] == 0, \"patient is already exist\");\r\n        id++;\r\n        patientToId[_patientId] = id;\r\n        Info storage patient = patientResult[id];\r\n        patient.name = _name;\r\n        patient.idType = _idType;\r\n        patient.doctorId = addressToDoctorId[msg.sender];\r\n        patient.testResult = _testResult;\r\n    }\r\n\r\n    function editResult(string calldata _patientId, string calldata _testResult)\r\n        external\r\n        onlyDoctor\r\n    {\r\n        require(patientToId[_patientId] != 0, \"patient does not exist\");\r\n        uint256 patientId = patientToId[_patientId];\r\n        Info storage patient = patientResult[patientId];\r\n        patient.testResult = _testResult;\r\n    }\r\n\r\n    function getResult(string calldata _patientId)\r\n        external\r\n        view\r\n        returns (string memory, string memory, string memory, string memory)\r\n    {\r\n        uint256 patientId = patientToId[_patientId];\r\n        Info memory patient = patientResult[patientId];\r\n        return (\r\n            patient.name,\r\n            patient.idType,\r\n            patient.doctorId,\r\n            patient.testResult\r\n        );\r\n    }\r\n\r\n    function getDoctorInfo(string calldata _doctorId)\r\n        external\r\n        view\r\n        returns (string memory, string memory)\r\n    {\r\n        DoctorInfo memory doctor = idToDoctorInfo[_doctorId];\r\n        return (doctor.name, doctor.labId);\r\n    }\r\n\r\n    function signInDoctor(string calldata _doctorId)\r\n        external\r\n        view\r\n        returns (bool)\r\n    {\r\n        return\r\n            keccak256(abi.encodePacked(_doctorId)) ==\r\n            keccak256(abi.encodePacked(addressToDoctorId[msg.sender]));\r\n    }\r\n\r\n    function kill() public onlyOwner returns (bool) {\r\n        selfdestruct(msg.sender);\r\n        return true;\r\n    }\r\n}\r\n",
  "sourcePath": "D:\\hackathon\\block-app\\ResultSmartContract\\contracts\\Result.sol",
  "compiler": {
    "name": "solc",
    "version": "0.6.0+commit.26b70077.Emscripten.clang"
  },
  "schemaVersion": "3.1.0",
  "updatedAt": "2020-04-25T15:49:53.132Z",
  "networkType": "ethereum",
  "devdoc": {
    "methods": {
      "owner()": {
        "details": "Returns the address of the current owner."
      },
      "renounceOwnership()": {
        "details": "Leaves the contract without owner. It will not be possible to call `onlyOwner` functions anymore. Can only be called by the current owner.     * NOTE: Renouncing ownership will leave the contract without an owner, thereby removing any functionality that is only available to the owner."
      },
      "transferOwnership(address)": {
        "details": "Transfers ownership of the contract to a new account (`newOwner`). Can only be called by the current owner."
      }
    }
  },
  "userdoc": {
    "methods": {}
  }
}